{
  "contractName": "Invoice",
  "abi": [
    {
      "constant": false,
      "inputs": [
        {
          "name": "invoiceID",
          "type": "string"
        },
        {
          "name": "hash",
          "type": "string"
        }
      ],
      "name": "addInvoice",
      "outputs": [
        {
          "name": "",
          "type": "bool"
        }
      ],
      "payable": false,
      "stateMutability": "nonpayable",
      "type": "function"
    },
    {
      "constant": true,
      "inputs": [
        {
          "name": "hash",
          "type": "string"
        }
      ],
      "name": "isHashExists",
      "outputs": [
        {
          "name": "",
          "type": "bool"
        }
      ],
      "payable": false,
      "stateMutability": "view",
      "type": "function"
    },
    {
      "constant": true,
      "inputs": [
        {
          "name": "hash",
          "type": "string"
        }
      ],
      "name": "getInvoiceID",
      "outputs": [
        {
          "name": "",
          "type": "string"
        }
      ],
      "payable": false,
      "stateMutability": "view",
      "type": "function"
    }
  ],
  "bytecode": "0x608060405234801561001057600080fd5b50610719806100206000396000f3fe608060405234801561001057600080fd5b50600436106100415760003560e01c8063094e9efb146100465780631c69487c146100fe5780631d31f41d14610227575b600080fd5b6100ea6004803603602081101561005c57600080fd5b810190602081018135600160201b81111561007657600080fd5b82018360208201111561008857600080fd5b803590602001918460018302840111600160201b831117156100a957600080fd5b91908080601f016020809104026020016040519081016040528093929190818152602001838380828437600092019190915250929550610340945050505050565b604080519115158252519081900360200190f35b6100ea6004803603604081101561011457600080fd5b810190602081018135600160201b81111561012e57600080fd5b82018360208201111561014057600080fd5b803590602001918460018302840111600160201b8311171561016157600080fd5b91908080601f0160208091040260200160405190810160405280939291908181526020018383808284376000920191909152509295949360208101935035915050600160201b8111156101b357600080fd5b8201836020820111156101c557600080fd5b803590602001918460018302840111600160201b831117156101e657600080fd5b91908080601f0160208091040260200160405190810160405280939291908181526020018383808284376000920191909152509295506103bc945050505050565b6102cb6004803603602081101561023d57600080fd5b810190602081018135600160201b81111561025757600080fd5b82018360208201111561026957600080fd5b803590602001918460018302840111600160201b8311171561028a57600080fd5b91908080601f016020809104026020016040519081016040528093929190818152602001838380828437600092019190915250929550610538945050505050565b6040805160208082528351818301528351919283929083019185019080838360005b838110156103055781810151838201526020016102ed565b50505050905090810190601f1680156103325780820380516001836020036101000a031916815260200191505b509250505060405180910390f35b600080826040518082805190602001908083835b602083106103735780518252601f199092019160209182019101610354565b51815160209384036101000a600019018019909216911617905292019485525060405193849003019092205460ff161591506103b39050575060016103b7565b5060005b919050565b600060016000836040518082805190602001908083835b602083106103f25780518252601f1990920191602091820191016103d3565b51815160209384036101000a60001901801990921691161790529201948552506040519384900381018420805460ff191695151595909517909455505083518592600092869290918291908401908083835b602083106104635780518252601f199092019160209182019101610444565b6001836020036101000a038019825116818451168082178552505050505050905001915050908152602001604051809103902060010190805190602001906104ac929190610652565b5060026000836040518082805190602001908083835b602083106104e15780518252601f1990920191602091820191016104c2565b51815160209384036101000a600019018019909216911617905292019485525060405193849003019092206002908101805490935060ff19169150600190849081111561052a57fe5b021790555060019392505050565b606061054382610340565b61055c57506040805160208101909152600081526103b7565b6000826040518082805190602001908083835b6020831061058e5780518252601f19909201916020918201910161056f565b518151600019602094850361010090810a8201928316921993909316919091179092529490920196875260408051978890038201882060019081018054601f600293821615909802909501909416049485018290048202880182019052838752909450919250508301828280156106465780601f1061061b57610100808354040283529160200191610646565b820191906000526020600020905b81548152906001019060200180831161062957829003601f168201915b50505050509050919050565b828054600181600116156101000203166002900490600052602060002090601f016020900481019282601f1061069357805160ff19168380011785556106c0565b828001600101855582156106c0579182015b828111156106c05782518255916020019190600101906106a5565b506106cc9291506106d0565b5090565b6106ea91905b808211156106cc57600081556001016106d6565b9056fea165627a7a72305820c6da960f9ad53eb83c9285ffb4fe389e051b3e9f16b1060ab585fc719e36dd960029",
  "source": "pragma solidity ^0.5.0;\r\n\r\ncontract Invoice {\r\n\r\n    enum Status {\r\n\t\tINACTIVE,\r\n\t\tPENDING,\r\n\t\tACTIVE\r\n\t}\r\n\r\n\tstruct InvoiceStruct {\r\n\t\tbool isExist;\r\n        string invoiceID;\r\n\t\tStatus status;\r\n\t}\r\n\r\n    mapping (string => InvoiceStruct) invoices;\r\n\r\n    /* addInvoice function */\r\n    function addInvoice(string memory invoiceID, string memory hash) public returns (bool) {\r\n        invoices[hash].isExist = true;\r\n        invoices[hash].invoiceID = invoiceID;\r\n        invoices[hash].status = Status.ACTIVE;\r\n        return true;\r\n    }\r\n\r\n    /* isHashExists function */\r\n    function isHashExists(string memory hash) public view returns (bool) {\r\n        if(invoices[hash].isExist)\r\n            return true;\r\n        else   \r\n            return false;\r\n    }\r\n\r\n    /* getInvoiceID function */\r\n    function getInvoiceID(string memory hash) public view returns (string memory) {\r\n        if(!isHashExists(hash))\r\n            return \"\";\r\n        \r\n        return invoices[hash].invoiceID;\r\n    }\r\n}\r\n",
  "sourcePath": "/home/teddy/truffle_box/contracts/Invoice.sol",
  "compiler": {
    "name": "solc",
    "version": "0.5.8+commit.23d335f2.Emscripten.clang"
  },
  "schemaVersion": "3.0.11",
  "updatedAt": "2019-08-26T03:45:58.094Z",
  "devdoc": {
    "methods": {}
  },
  "userdoc": {
    "methods": {}
  }
}